:020000040800F2
:1000000090090020ED260008793C00087B3C0008A0
:100010007F3C0008833C0008873C0008000000008B
:100020000000000000000000000000008B3C000801
:100030008D3C0008000000008F3C0008933C000845
:1000400007270008072700080727000807270008D8
:1000500007270008072700080727000807270008C8
:1000600007270008072700080727000807270008B8
:1000700007270008072700080727000807270008A8
:100080000727000807270008072700080727000898
:100090000727000807270008072700080727000888
:1000A00007270008913C000807270008773500085B
:1000B0002D390008072700083939000807270008EC
:1000C0000727000807270008072700080727000858
:1000D00007270008613D000807270008213D0008A8
:1000E000072700080727000807270008DFF80CD0BB
:1000F00006F09AF900480047C53B00089009002027
:1001000031490143314A1160704770B50021002325
:100110000F22C47804B32D4C246804F4E064C4F5C1
:10012000E064210AC1F10403CA40447804FA03F1EF
:100130008478144021430901254C0678A1550478A0
:1001400004F01F050124AC4005786D11AD0005F1E8
:10015000E025C5F8004109E0047804F01F050124FA
:10016000AC401C4D0678761145F8264070BD1A4A01
:100170000A400243154B1B1F1A60704739B1134ADE
:10018000121D12680243114B1B1D1A6006E00F4A34
:10019000121D126882430D4B1B1D1A607047042804
:1001A00008D14FF0E021096941F004014FF0E0224D
:1001B000116107E04FF0E021096921F004014FF0DF
:1001C000E0221161704700000000FA050CED00E02C
:1001D00000E400E080E100E080FFFF1F10B504466E
:1001E000CC48844208D10121042000F02DFB0021DD
:1001F000042000F029FB46E0C748844208D10121D1
:10020000082000F021FB0021082000F01DFB3AE04F
:10021000C248844208D10121102000F015FB0021C2
:10022000102000F011FB2EE0BD48844208D10121CE
:10023000202000F009FB0021202000F005FB22E037
:10024000B848844208D10121402000F0FDFA002185
:10025000402000F0F9FA16E0B348844208D10121A9
:10026000802000F0F1FA0021802000F0EDFA0AE091
:10027000AE48844207D10121801500F0E5FA002143
:10028000A01500F0E1FA10BD10B50121084600F0FC
:10029000DBFA0021012000F0D7FA10BD2DE9F04172
:1002A000024600250026002000230024002791F8A4
:1002B00003C00CF00F0591F803C00CF0100CBCF15A
:1002C000000F03D091F802C04CEA050591F800C078
:1002D000BCF1000F31D0146800202BE04FF0010C6E
:1002E0000CFA00F3B1F800C00CEA03069E4220D1DC
:1002F00083004FF00F0C0CFA03F7BC4305FA03FC24
:100300004CEA040491F803C0BCF1280F06D14FF069
:10031000010C0CFA00FCC2F814C00AE091F803C00A
:10032000BCF1480F05D14FF0010C0CFA00FCC2F8EB
:1003300010C0401C0828D1D31460B1F800C0BCF133
:10034000FF0F34DD546800202EE000F1080C4FF060
:10035000010808FA0CF3B1F800C00CEA03069E424B
:1003600021D183004FF00F0C0CFA03F7BC4305FAC0
:1003700003FC4CEA040491F803C0BCF1280F05D13A
:1003800000F1080C08FA0CF8C2F8148091F803C0C8
:10039000BCF1480F07D100F1080C4FF0010808FA32
:1003A0000CF8C2F81080401C0828CED35460BDE879
:1003B000F0814FF6FF710180022181700421C1702C
:1003C00070470246002093680B400BB1012000E00B
:1003D000002070470146886880B2704702460020BE
:1003E000D3680B400BB1012000E0002070470146AC
:1003F000C86880B2704701617047416170470AB1B7
:10040000016100E041617047C16070474FF4803284
:100410000A43826181618261826982697047024612
:100420000020434B18684FF68073184040EA0210D2
:1004300008433F4B186070473E49C8617047F0B5AC
:100440000A46002300240021002500F00046B6F1F2
:10045000004F02D1364EF16901E0354E7168C0F3AC
:10046000034583B200F44016B6F5401F08D121F0D1
:1004700070612F4E766826F070662D4F7E6012E018
:1004800000F48016B6F5801F06D1032606FA05F49F
:10049000A14341F0706106E0460D360103FA06F60D
:1004A000B14341F0706122B1460D360103FA06F600
:1004B000314300F00046B6F1004F02D11C4EF1610D
:1004C00001E01B4E7160F0BD30B500228B071C0FA0
:1004D0000F2303FA04F2164B08338C1053F8243020
:1004E0009343134C08348D1044F8253023468C1068
:1004F00053F824308C07240F00FA04F423430C4CE7
:1005000008348D1044F8253030BD0A49DC310860CC
:100510007047000000080140000C0140001001403D
:100520000014014000180140001C0140002001405F
:100530000000014000002042DF48006840F0010058
:10054000DD49086008464068DC490840DA494860EF
:1005500008460068DA490840D7490860084600683C
:1005600020F4802008600846406820F4FE004860BF
:100570004FF41F0088607047CF49096821F480312B
:10058000CD4A11601146096821F480211160B0F54F
:10059000803F03D0B0F5802F0ED106E0C649096830
:1005A00041F48031C44A116007E0C349096841F44D
:1005B000A021C14A116000E000BF00BF704710B524
:1005C00001460022002300204A11012A02D1BA4C20
:1005D000236806E0022A02D1B74C236A01E0B64C38
:1005E000636A01F01F02012494401C400CB10120F9
:1005F00000E0002010BD38B5002000900024002548
:1006000000BF3120FFF7DBFF05460098401C00903B
:100610000098B0F5A06F01D0002DF2D03120FFF787
:10062000CEFF08B1012400E00024204638BD014679
:100630000020A14A106820F0F80040EAC1001060D4
:100640007047A04908607047024600209A4B5868DE
:1006500020F47C1042EA01031843974B586070471E
:1006600098490866704701460020934A506820F078
:1006700003000843506070478F48406800F00C004A
:100680007047014600208C4A506820F0F000084373
:100690005060704701460020874A506820F4E060AF
:1006A00008435060704701460020834A506820F498
:1006B000605040EAC1005060704729B17E4A527ACA
:1006C00002437D4B5A7204E07B4A527A82437A4B52
:1006D0005A7270477B49D831086070470146002044
:1006E000754A506820F4404008435060704700212C
:1006F000714A20321170704A82F82010012802D00D
:1007000004280AD104E001216B4A2032117005E06F
:100710000521694A2032117000E000BF00BF704718
:100720006949086070476449096A0143624A116275
:100730007047654944390860704730B50021002290
:10074000002400235C4D6D6805F00C0121B10429E3
:1007500005D0082923D105E05C4D056022E05B4D02
:1007600005601FE0544D6D6805F47012524D6D68C0
:1007700005F48034022505EB92421CB9544D5543D3
:1007800005600BE04C4D6D6805F400351DB1504D12
:100790005543056002E04D4D5543056002E04B4D69
:1007A000056000BF00BF444D6D6805F0F001090908
:1007B000484D6B5C0568DD4045603F4D6D6805F454
:1007C000E061090A434D6B5C4568DD4085603A4D48
:1007D0006D6805F46051C90A3E4D6B5C4568DD40AB
:1007E000C560354D6D6805F44041890B3A4D6B5C31
:1007F000C568B5FBF3F5056130BD29B12E4A5269D4
:1008000002432D4B5A6104E02B4A526982432A4B22
:100810005A61704729B1284A92690243264B9A616E
:1008200004E0254A92698243234B9A61704729B1BB
:10083000214AD2690243204BDA6104E01E4AD269A0
:1008400082431D4BDA61704729B11B4AD2680243CB
:10085000194BDA6004E0184AD2688243164BDA601A
:10086000704729B1144A12690243134B1A6104E01C
:10087000114A12698243104B1A617047124940397C
:10088000086070470F49C86470470B49C8717047CA
:100890000948406A40F08070074948627047014645
:1008A0000020054A92680A400AB1012000E00020B9
:1008B0007047014988727047001002400000FFF83D
:1008C000FFFFF6FE000042428004424200127A001E
:1008D00000093D00000000201000002010B5044673
:1008E000FE48844208D10121C014FFF7ADFF00216A
:1008F000E014FFF7A9FFC4E0B4F1804F08D1012153
:100900000846FFF7AEFF00210120FFF7AAFFB8E07D
:10091000F348844208D101210220FFF7A2FF002101
:100920000220FFF79EFFACE0EE48844208D101218F
:100930000420FFF796FF00210420FFF792FFA0E0BC
:10094000E948844208D101210820FFF78AFF0021ED
:100950000820FFF786FF94E0E448844208D1012193
:100960001020FFF77EFF00211020FFF77AFF88E0BC
:10097000DF48844208D101212020FFF772FF0021C7
:100980002020FFF76EFF7CE0DA48844208D1012185
:100990004014FFF759FF00216014FFF755FF70E086
:1009A000D548844209D10121C804FFF74DFF002139
:1009B0004FF40020FFF748FF63E0D048844209D19C
:1009C00001210805FFF740FF00214FF48010FFF7D9
:1009D0003BFF56E0CA48844209D101214805FFF790
:1009E00033FF00214FF40010FFF72EFF49E0C54808
:1009F000844208D101214020FFF733FF002140202D
:100A0000FFF72FFF3DE0C048844208D1012180203C
:100A1000FFF727FF00218020FFF723FF31E0BB48CD
:100A2000844208D101218015FFF71BFF0021A0158A
:100A3000FFF717FF25E0B648844209D101210804D9
:100A4000FFF702FF00214FF48030FFF7FDFE18E0B2
:100A5000B048844209D101214804FFF7F5FE002186
:100A60004FF40030FFF7F0FE0BE0AB48844208D1B2
:100A700001218804FFF7E8FE00214FF48020FFF7F2
:100A8000E3FE10BD00220288944B98420ED0994B91
:100A900098420BD0B0F1804F08D0914B984205D0CE
:100AA000904B984202D0904B984204D14FF68F73EE
:100AB0001A404B881A438D4B984207D08C4B984272
:100AC00004D04FF6FF431A40CB881A4302808B882C
:100AD00083850B880385814B98420BD0854B9842C8
:100AE00008D08B4B984205D08A4B984202D08A4B53
:100AF000984201D10B7A038601238382704770B537
:100B0000002400220023058C4FF6FE763540058434
:100B1000028C8388048B4FF68F752C40B51E2C40B9
:100B20000D882C43751E2A400D892A434D882A437F
:100B30006A4DA8420BD06F4DA84208D0744DA84210
:100B400005D0744DA84202D0734DA84213D14FF680
:100B5000F7752A404D892A434FF6FB752A408D8848
:100B60002A434FF6FF652B404FF6FF552B408D89EA
:100B70002B43CD892B4383800483CD8885860284D3
:100B800070BD70B5002400220023058C4FF6EF766F
:100B900035400584028C8388048B48F6FF752C4011
:100BA0004FF6FF452C400D884FF6FF7606EA0525E7
:100BB0002C434FF6DF752A400D8906EA05152A43B6
:100BC0004D8806EA05152A43444DA84202D0494DF6
:100BD000A8421DD14FF67F752A404D894FF6FF760A
:100BE00006EA05152A434FF6BF752A408D8806EAA6
:100BF00005152A434FF6FF352B404FF2FF752B406A
:100C00008D8906EA85052B43CD8906EA85052B43A8
:100C100083800483CD880587028470BD70B500246D
:100C200000220023058C4FF6FF6635400584028CB8
:100C30008388848B4FF68F752C404FF6FC752C40C3
:100C40000D882C434FF6FF552A400D894FF6FF764D
:100C500006EA05252A434D8806EA05252A431F4D45
:100C6000A84202D0234DA8421DD14FF2FF752A4061
:100C70004D894FF6FF7606EA05252A434FF6FF35E4
:100C80002A408D8806EA05252A434EF6FF752B403B
:100C90004DF6FF752B408D8906EA05152B43CD894E
:100CA00006EA05152B4383808483CD8885870284DB
:100CB00070BD70B5002200230024058C4EF6FF762F
:100CC00035400584038C8488828B48F6FF752A4062
:100CD0004FF6FF452A400D8820E00000002C01401F
:100CE0000004004000080040000C004000100040DC
:100CF0000014004000340140004C0140005001400D
:100D00000054014000180040001C0040002000403A
:100D10000040014000440140004801404FF6FF768A
:100D200006EA05252A434DF6FF752B400D8906EA94
:100D300005352B434D8806EA05352B43FA4DA8426D
:100D400002D0FA4DA84208D14BF6FF752C408D8990
:100D50004FF6FF7606EA85152C4384808283CD8882
:100D6000A0F84050038470BD828B4FF2FF331A40CD
:100D70008283828B4FF6FF7303EA01231A43828337
:100D80007047F0B50C461546002200210026078C5E
:100D90004EF6FF7C07EA0C070784828B018C4FF626
:100DA000FF7707EA043640F6FF473A404FF6FF77F1
:100DB00007EA05273A434FF6FF7707EA03373A4336
:100DC000D94FB8420ED0D94FB8420BD0B0F1804FB6
:100DD00008D0D74FB84205D0D64FB84202D0D64F30
:100DE000B84206D14DF6FF77394046F48057394373
:100DF00005E047F6FF57394044F480573943828372
:100E00000184F0BD828B4FF6F3731A408283828B8C
:100E10000A4382837047F0B50C4615460022002134
:100E20000026078C4FF6FF6C07EA0C070784828BBD
:100E3000018C4FF6FF7707EA04264FF60C773A400D
:100E40004FF6FF7707EA03172F433A43B64FB842EE
:100E50000ED0B64FB8420BD0B0F1804F08D0B44F8F
:100E6000B84205D0B34FB84202D0B34FB84206D112
:100E70004FF6FF57394046F48077394305E04FF28B
:100E8000FF57394044F48077394382830184F0BDB1
:100E9000028B4FF2FF331A400283028B4FF6FF732F
:100EA00003EA01231A4302837047F0B50C46154646
:100EB000002200210026078C4FF6EF7C07EA0C0782
:100EC0000784028B018C4FF6FF7707EA041640F681
:100ED000FF473A404FF6FF7707EA03373A434FF6AA
:100EE000FF7707EA05273A438F4FB8420ED08F4F5E
:100EF000B8420BD0B0F1804F08D08D4FB84205D02A
:100F00008C4FB84202D08C4FB84206D14FF6DF77F3
:100F1000394046F01007394305E04FF65F77394016
:100F200044F01007394302830184F0BD028B4FF671
:100F3000F3731A400283028B0A4302837047F0B5B1
:100F40000C46154600220021068C4FF6FE773E40E7
:100F50000684028B018C4FF60C7632407E1C06EA2A
:100F600003162E433243704EB0420ED06F4EB04245
:100F70000BD0B0F1804F08D06D4EB04205D06D4E11
:100F8000B04202D06C4EB04206D14FF6FD763140F1
:100F900044F00106314305E04FF6F576314044F068
:100FA0000106314302830184F0BD70B505460C464D
:100FB0005D4885420ED05D4885420BD0B5F1804F2B
:100FC00008D05B48854205D05A48854202D05A482D
:100FD000854200D100E000BF208850B92389A28853
:100FE00061882846FFF7ABFFE1882846FFF79EFFA0
:100FF00025E0208804280AD12389A2886188284610
:10100000FFF753FFE1882846FFF742FF17E02088EB
:1010100008280AD12389A28861882846FFF7FBFEA9
:10102000E1882846FFF7EEFE09E02389A28861885F
:101030002846FFF7A6FEE1882846FFF795FE70BD1B
:101040002DE9F04105460C4600260127608808B9C5
:10105000022600E00026A088012801D1022700E036
:1010600001272088A0B92389A28861882846FFF734
:1010700066FFE1882846FFF759FF23893A46314643
:101080002846FFF712FFE1882846FFF701FF13E02B
:101090002389A28861882846FFF707FFE188284650
:1010A000FFF7F6FE23893A4631462846FFF747FF09
:1010B000E1882846FFF73AFFBDE8F0810A884B88AF
:1010C0001A438B881A43CB881A430B891A434B89DE
:1010D0001A438B891A43A0F8442070474FF6FF71DA
:1010E000818000210180C180418001727047002110
:1010F000018041808180C180018141818181C181E4
:101100007047002101804180012181800021C18040
:10111000018170470021018041808180C18001816F
:101120004181818170470000002C01400034014062
:101130000004004000080040000C004021B102887B
:1011400042F00102028004E002884FF6FE731A406A
:101150000280704731B1B0F8442042F40042A0F858
:10116000442005E0B0F84420C2F30E02A0F8442069
:1011700070471AB183890B43838102E083898B43D3
:10118000838170478182704741EA0203A0F84830AA
:1011900070471AB183890B43838102E083898B43B3
:1011A0008381704701894FF6F872114001817047C1
:1011B0000A46002101894FF68F73194011430181BE
:1011C000704730B504460D4629462046FFF7F0FF2C
:1011D000208940F00700208130BD2DE9F041044610
:1011E0000D4616461F46602D06D13B46012231466C
:1011F0002046FFF75AFE05E03B46012231462046D5
:10120000FFF79DFE29462046FFF7D2FF208940F0D8
:1012100007002081BDE8F08130B50C46002101892E
:10122000C9B24FF6FF7505EA032515432543294347
:10123000018130BD2DE9F04105460E46174698461E
:10124000002443463A4631462846FFF7E5FF2C89FD
:101250004FF6F870044044F007044FF68F700440D6
:1012600044F070042C81BDE8F081F0B504460D46D1
:1012700016461F463B46324629462046FFF7CCFF1E
:10128000208940F480402081F0BD01858282704732
:101290000A46002101884FF68F73194011430180DF
:1012A0007047F0B50C4615461E460021002200236B
:1012B0000189028B038C4FF6F877394021434FF6B2
:1012C000FC473A4040F201173A434FF6DD773B4086
:1012D0004FF6FF7707EA06172F433B43018102834E
:1012E0000384F0BD0A460021018B4FF68F7319402D
:1012F0001143018370470A460021018B48F6FF73B2
:1013000019404FF6FF7303EA022319430183704724
:101310000A460021818B4FF68F7319401143818358
:1013200070470A460021818B48F6FF7319404FF63B
:10133000FF7303EA022319438183704721B10288B6
:1013400042F08002028004E002884FF67F731A4068
:101350000280704721B1828842F00402828004E05A
:1013600082884FF6FB731A408280704721B18288D1
:1013700042F00802828004E082884FF6F7731A4038
:101380008280704721B1828842F00102828004E0AD
:1013900082884FF6FE731A40828070470A46002109
:1013A000018B4FF6F77319401143018370470A46CA
:1013B0000021018B4FF2FF7319404FF6FF7303EAD0
:1013C00002231943018370470A460021818B4FF69F
:1013D000F77319401143818370470A460021818BBE
:1013E0004FF2FF7319404FF6FF7303EA02231943CC
:1013F000818370470A460021018B4FF6FB73194029
:101400001143018370470A460021018B4FF6FF33D9
:1014100019404FF6FF7303EA022319430183704713
:101420000A460021818B4FF6FB73194011438183DB
:1014300070470A460021818B4FF6FF3319404FF663
:10144000FF7303EA02231943818370470A46002190
:10145000018B4FF67F7319401143018370470A4691
:101460000021018BC1F30E014FF6FF7303EA022343
:101470001943018370470A460021818B4FF67F7321
:1014800019401143818370470A460021818BC1F3C3
:101490000E014FF6FF7303EA02231943818370475D
:1014A0000A460021018C4FF6FD7319401143018457
:1014B00070470A460021018C4FF6F773194011431B
:1014C000018470470A460021018C4FF6DF731940F2
:1014D0004FF6FF7303EA02131943018470470A466B
:1014E0000021018C4FF67F7319404FF6FF7303EA1A
:1014F00002131943018470470A460021018C4FF6FC
:10150000FF5319404FF6FF7303EA02231943018486
:1015100070470A460021018C4FF2FF7319404FF6C5
:10152000FF7303EA02231943018470470A4600212E
:10153000018C4DF6FF7319404FF6FF7303EA023337
:1015400019430184704730B5002301248C40A3B2B5
:10155000048C9C430484048C02FA01F5ADB22C4344
:10156000048430BD30B5002304248C40A3B2048C25
:101570009C430484048C02FA01F5ADB22C4304842C
:1015800030BD70B5034600200024184618300125F0
:101590008D40ACB21D8CA5431D8409B1082909D129
:1015A00000EB6100056825F07005056005681543CE
:1015B00005600EE00D1FC5F34E052844056825F4AF
:1015C000E045056005684FF6FF7606EA02263543DA
:1015D000056070BD21B1028842F00202028004E081
:1015E00002884FF6FD731A400280704721B10288CD
:1015F00042F00402028004E002884FF6FB731A40B6
:101600000280704721B1828842F08002828004E02B
:1016100082884FF67F731A408280704702884FF6A7
:10162000F7731A40028002880A430280704782885A
:101630004FF68F731A40828082880A4382807047F7
:1016400002894FF6F8731A40028102890A43028127
:10165000704702894FF67F731A40028102890A435C
:101660000281704781847047818570478186704709
:101670000187704781877047A0F840107047028843
:101680004FF6FF431A40028002880A4302807047E7
:101690000146888E70470146088F70470146888F43
:1016A00070470146B1F8400070470146888C70478A
:1016B0000146088D704702460020138A0B400BB18B
:1016C000012000E000207047CA430282704730B515
:1016D0000246002000230024158A05EA01039589AB
:1016E00005EA010413B10CB1012000E0002030BD77
:1016F000CA4302827047000010B50446FB4884428A
:1017000009D101218803FFF79FF800214FF48040A1
:10171000FFF79AF832E0F648844209D101214804E3
:10172000FFF79FF800214FF40030FFF79AF825E00B
:10173000F048844209D101218804FFF792F8002182
:101740004FF48020FFF78DF818E0EB48844209D170
:101750000121C804FFF785F800214FF40020FFF7AE
:1017600080F80BE0E548844208D101210805FFF725
:1017700078F800214FF48010FFF773F810BD2DE9C1
:10178000F04786B005460E460024A24600BFA1469B
:101790000027B08900B100BF2F462C8A4CF6FF709D
:1017A0000440F08804432C82AC894EF6F3100440C8
:1017B000B08831890843718908430443AC81AC8AFD
:1017C0004FF6FF400440B0890443AC8201A8FEF705
:1017D000B4FFC648874202D1DDF810A001E0DDF871
:1017E0000CA0A88900F4004040B10AEBCA0000EB4D
:1017F0000A1031684900B0FBF1F807E00AEBCA00B3
:1018000000EB0A1031688900B0FBF1F86420B8FBE6
:10181000F0F004012009642101FB1089A88900F47B
:10182000004040B1322000EBC900B0FBF1F000F005
:101830000700044308E0322000EB09106421B0FBEC
:10184000F1F000F00F0004432C8106B0BDE8F087F2
:101850004FF41651016000218180C18001810C216B
:10186000418100218181704710B502460020108A15
:101870004FF2FF0318400B884C8823438C88234386
:10188000CC8823431843108210BD00210180418081
:101890008180C180704721B1828942F400528281E7
:1018A00004E082894DF6FF731A4082817047F0B5DB
:1018B0000346002400260025002040F66A17B9429E
:1018C00000D100BF1846C1F3421401F01F060127E2
:1018D00007FA06F5012C01D10C3004E0022C01D1ED
:1018E000103000E014301AB107682F43076002E09F
:1018F0000768AF430760F0BD1AB1838A0B43838248
:1019000002E0838A8B4383827047028A4FF6F0732A
:101910001A400282028A0A430282704782894FF289
:10192000FF731A40828182890A438281704721B104
:10193000828942F00202828104E082894FF6FD73BF
:101940001A4082817047028A4FF6DF731A40028282
:10195000028A0A430282704721B1028A42F480421D
:10196000028204E0028A4BF6FF731A40028270473B
:10197000C1F308028280704701468888C0F30800DE
:101980007047818941F0010181817047028BD2B299
:101990000283028B42EA012202837047028B02F427
:1019A0007F420283028B0A430283704721B1828AFD
:1019B00042F02002828204E0828A4FF6DF731A40EE
:1019C0008282704721B1828A42F01002828204E052
:1019D000828A4FF6EF731A408282704721B1828A61
:1019E00042F00802828204E0828A4FF6F7731A40BE
:1019F0008282704721B1828942F40042828103E0F1
:101A00008289C2F30E028281704721B1828A42F438
:101A10000062828204E0828A4FF2FF731A4082825F
:101A20007047828A4FF6FB731A408282828A0A4389
:101A30008282704721B1828A42F00202828204E0EF
:101A4000828A4FF6FD731A40828270470246002058
:101A5000B1F5007F00D100BF13880B400BB101200E
:101A600000E00020704701F40072B2F5007F00D161
:101A700000BFCA430280704770B5024600240023AD
:101A80000025002040F66A16B14200D100BFC1F324
:101A9000421501F01F03012606FA03F3012D02D1BE
:101AA0009689334006E0022D02D1168A334001E0C8
:101AB000968A33400C12012606FA04F41688344044
:101AC00013B10CB1012000E0002070BD10B5002260
:101AD000002340F66A14A14200D100BF0A1201247B
:101AE0009440A3B2DC43048010BD000000380140E4
:101AF0000044004000480040004C004000500040BE
:101B000010B50446FA48844208D101214015FEF779
:101B10009BFE00216015FEF797FE17E0F548844212
:101B200008D101210015FEF78FFE00212015FEF7D8
:101B30008BFE0BE0F048844208D10121C803FEF778
:101B400083FE00214FF40040FEF77EFE10BD30B54D
:101B50000246002000235068E84C20400D790C68B4
:101B600044EA0524204350609068E54C2040D1E9C8
:101B700002542C434D7944EA450420439060D06AD6
:101B800020F470000C7C641EE4B2234340EA03504E
:101B9000D06230BD00210160017141718160C1607E
:101BA00001210174704721B1826842F00102826014
:101BB00003E0826822F001028260704721B18268EE
:101BC00042F48072826003E0826822F48072826054
:101BD000704710B50023CBB21AB144681C4344606F
:101BE00002E044689C43446010BD816841F00801F4
:101BF00081607047014600208A6802F008020AB13D
:101C0000012000E000207047816841F004018160FC
:101C10007047014600208A6802F004020AB10120E0
:101C200000E00020704721B1826842F4A002826087
:101C300003E0826822F4A00282607047014600201F
:101C40008A6802F480020AB1012000E00020704797
:101C500010B50A4600210023416821F46041531E5B
:101C600041EA4331416010BD21B1426842F4006253
:101C7000426003E0426822F4006242607047F0B5BF
:101C800004460D4600200021092D11DDE068A5F174
:101C90000A0606EB4607072606FA07F18843A5F170
:101CA0000A0606EB460603FA06F10843E0600CE07C
:101CB000206905EB4507072606FA07F1884305EB7F
:101CC000450603FA06F108432061072A0FDA606B24
:101CD000561E06EB86071F2606FA07F18843561E96
:101CE00006EB860605FA06F10843606322E00D2A3A
:101CF0000FDA206BD61F06EB86071F2606FA07F1C0
:101D00008843D61F06EB860605FA06F108432063D2
:101D100010E0E06AA2F10D0606EB86071F2606FA20
:101D200007F18843A2F10D0606EB860605FA06F1D7
:101D30000843E062F0BD21B1826842F48012826003
:101D400003E0826822F48012826070470146C86C0A
:101D500080B2704766484C300068704721B14268D5
:101D600042F48062426003E0426822F48062426092
:101D7000704721B1426842F48052426003E04268F9
:101D800022F48052426070470A460021816821F4A3
:101D9000E04111438160704721B1826842F4004202
:101DA000826003E0826822F400428260704721B1C1
:101DB000826842F40212826003E0826822F4021216
:101DC00082607047014600208A6802F400120AB15E
:101DD000012000E000207047F0B5044615460020C1
:101DE00000220026092911DDE068A1F10A0707EBAE
:101DF000470C072707FA0CF29043A1F10A0707EBFB
:101E0000470703FA07F21043E0600CE0206901EB9A
:101E1000410C072707FA0CF2904301EB410703FA44
:101E200007F210432061A06BC0F30156EF1C06F1CE
:101E3000010CA7EB0C0707EB870C1F2707FA0CF226
:101E40009043EF1C06F1010CA7EB0C0707EB87078B
:101E500001FA07F21043A063F0BD10B50A46002155
:101E60000023816B21F44011531E41EA0351816329
:101E700010BD08B5002300930090009B0B44009315
:101E8000009B1A6008BD08B5024600200090009231
:101E900001F12800009B184400900098006880B26F
:101EA00008BD0A4600214168164B194011434160A4
:101EB00070474162826270470A460021416821F002
:101EC0001F0111434160704740B109490831096859
:101ED00041F40001064A0832116007E00449083164
:101EE000096821F40001024A0832116070470000BD
:101EF0000024014000280140003C0140FFFEF0FFAB
:101F0000FDF7F1FFFFFD3FFF0246002013680B4085
:101F10000BB1012000E000207047CA430260704707
:101F200070B502460020002300240B125568CEB283
:101F300005EA060415681D4015B10CB1012000E04A
:101F4000002070BD00220A12D343036070470000D6
:101F500001460020FE4A106800F038000843106077
:101F60007047FB49096821F00801F94A11601146E0
:101F70000968014311607047F549096821F01001B3
:101F8000F34A116011460968014311607047F14836
:101F9000EF494860F04848607047EE48EC494860B7
:101FA000ED4848607047EA48006940F08000E84921
:101FB00008617047E648006940F08000E449086124
:101FC00070470420E249C96801F0010109B101200C
:101FD0000EE0DF49C96801F0040109B1022007E001
:101FE000DB49C96801F0100109B1032000E00420B9
:101FF000704700B502460423FFF7E3FF034603E002
:10200000FFF7DFFF0346521E012B01D1002AF7D153
:1020100002B90523184600BD30B5044604254FF427
:102020003020FFF7E6FF0546042D17D1C8480069A8
:1020300040F00200C649086108464461006940F06A
:10204000400008614FF43020FFF7D3FF0546C04839
:10205000006941F6FD710840BD490861284630BD60
:1020600010B504244FF43020FFF7C3FF0446042CBE
:1020700016D1B748006940F00400B5490861084628
:10208000006940F0400008614FF43020FFF7B1FFD5
:102090000446AF48006941F6FB710840AC4908614D
:1020A000204610BD00B502460423FFF78AFF034611
:1020B00003E0FFF786FF0346521E012B01D1002AE1
:1020C000F7D102B90523184600BD10B504244FF41A
:1020D0003020FFF7E7FF0446042C16D19C48006926
:1020E00040F004009A4908610846006940F0400049
:1020F00008614FF43020FFF7D5FF0446944800698B
:1021000041F6FB71084092490861204610BD00204D
:102110008F49C96901F0020109B1012000E00020E6
:10212000704730B5A5250424FFF7F1FF00B1002565
:102130004FF43020FFF75DFF0446042C3AD1854868
:1021400083498860844888600846006940F0200020
:1021500008610846006940F0400008614FF43020F3
:10216000FFF747FF0446042C1BD17948006941F66C
:10217000DF710840764908610846006940F01000A8
:10218000086176480580E002FFF733FF0446052C1E
:1021900010D06F48006941F6EF7108406C49086142
:1021A00008E0052C06D06A48006941F6EF71084046
:1021B00067490861204630BD78B506460C460425BF
:1021C00000200090E802FFF714FF0546042D24D1FB
:1021D0005F48006940F001005D4908613480E80211
:1021E000FFF707FF0546042D10D1B01C0090200C0E
:1021F00000990880E802FFF7FCFE05465448006994
:1022000041F6FE7108405249086106E050480069F5
:1022100041F6FE7108404E490861284678BD70B508
:1022200004460D460426F002FFF7E3FE0646042EA0
:1022300011D14748006940F00100454908612580F7
:10224000F002FFF7D6FE06464148006941F6FE71EE
:1022500008403F490861304670BD70B505460E46DE
:102260000424E002FFF7C5FE0446042C17D13948C8
:1022700037498860384888600846006940F0100097
:1022800008612E80E002FFF7B4FE0446052C06D05C
:102290002F48006941F6EF7108402D49086120463A
:1022A00070BD2DE9F04304464FF6FF763746B04641
:1022B000B1460425E443E6B2C4F30727C4F3074854
:1022C0004FEA1469E802FFF794FE0546042D49D150
:1022D00020481F498860204888600846006940F00F
:1022E00010000861FF2E06D01C4808300680E80266
:1022F000FFF77FFE0546042D08D1FF2F06D01748B3
:102300000A300780E802FFF774FE0546042D0AD163
:10231000B8F1FF0F07D011480C30A0F80080E80298
:10232000FFF767FE0546042D0AD1B9F1FF0F07D06C
:102330000A480E30A0F80090E802FFF75AFE054662
:10234000052D0FD00248006941F6EF71084007E003
:102350000020024023016745AB89EFCD00F8FF1F45
:10236000664908612846BDE8F08330B50546042477
:102370004FF43020FFF73DFE0446042C41D1604865
:102380005E4988605F4888600846006940F0200028
:1023900008610846006940F0400008614FF43020B1
:1023A000FFF727FE0446042C22D15448006941F669
:1023B000DF710840514908610846006940F010008B
:1023C00008611DB100205049088002E0A5204E4957
:1023D00008804FF43020FFF70CFE0446052C10D087
:1023E0004648006941F6EF7108404449086108E039
:1023F000052C06D04148006941F6DF7108403F498D
:102400000861204630BDF0B505460E461746042447
:102410003B483A4988603B488860E002FFF7E9FDA5
:102420000446042C19D13548006940F010003349A6
:10243000086147F0F800304328433349891C08807D
:10244000E002FFF7D6FD0446052C06D02B480069B4
:1024500041F6EF710840294908612046F0BD274840
:10246000C069800870472548006A704700202349EA
:10247000096801F0200109B1012000E00020704747
:1024800029B11E4A126902431C4B1A6104E01B4A1F
:1024900012698243194B1A617047014600200129D5
:1024A00008D1164AD26902F001020AB1012008E0FF
:1024B000002006E0114AD2680A400AB1012000E07B
:1024C000002070470D49C860704704200B49C96857
:1024D00001F0010109B101200EE00849C96801F0CD
:1024E000040109B1022007E00449C96801F01001A4
:1024F00009B1032000E004207047000000200240E2
:1025000023016745AB89EFCD00F8FF1F0CB5002014
:10251000019000906C48006840F480306A4908607F
:1025200000BF6948006800F4003000900198401C2A
:102530000190009818B90198B0F5A06FF1D16248E8
:10254000006800F4003010B10120009001E000208C
:1025500000900098012843D15C48006840F01000CA
:102560005A4908600846006820F0030008600846E1
:10257000006840F0020008605348406852494860D3
:102580000846406848600846406840F480604860FB
:102590000846406820F47C1048600846406840F4D3
:1025A000E81048600846006840F08070086000BF8E
:1025B0004548006800F000700028F9D042484068A3
:1025C00020F00300404948600846406840F002009F
:1025D000486000BF3C48406800F00C000828F9D172
:1025E0000CBD10B5FFF792FF10BD10B5364800685E
:1025F00040F001003449086008464068344908400A
:102600003149486008460068324908402E49086050
:102610000846006820F4802008600846406820F4DE
:10262000FE0048604FF41F008860FFF7DAFF4FF0AC
:1026300000602949086010BD10B50021002000226B
:10264000214B5B6803F00C0121B1042906D0082955
:1026500028D107E0214B224C236027E01F4B204C60
:10266000236023E0184B5B6803F47010164B5B6823
:1026700003F48032022303EB904022B9194B434309
:10268000174C23600DE0104B5B6803F4003323B15B
:10269000144B4343124C236003E0104B4343104C54
:1026A000236003E00D4B0E4C236000BF00BF064BC0
:1026B0005B68C3F303130C4CE15C094B1B68CB4014
:1026C000074C236010BD00000010024000200240B3
:1026D0000000FFF8FFFFF6FE08ED00E000127A00B0
:1026E0001400002000093D00180000200648804723
:1026F00006480047FEE7FEE7FEE7FEE7FEE7FEE7E7
:10270000FEE7FEE7FEE7FEE7EB250008ED00000828
:1027100010B501210846FEF77DF801212B48FDF791
:102720008EFE10BD2A4A002105E012F8013B00F898
:10273000013B4B1CD9B20C29F7DB704710B588B0B0
:102740006846FFF7EFFF0C21684601F077FB04466F
:10275000224620A1684604F0B3F8684600F036FC33
:10276000642001F05EFB08B010BD10B5FFF7D0FF8C
:1027700000F0F4FA00F05EFB002000F0AEFB00F089
:1027800035FE01F011F801F017F801F074F800F0CF
:102790005DFD00F04DFA00F04BFA00F035F801F065
:1027A000D9F801F0F3F800F03FFF4FF4FA7001F0B0
:1027B00038FB11A000F00AFC012000F08EFB142071
:1027C00001F02FFBFFF7BAFF10BD00000002300040
:1027D000E8F7FF1F0D0A41542B4E414D4542616CF5
:1027E000616E63696E674361725F766F6963652DC1
:1027F000253034580D0A00000D0A41542B42415532
:1028000044380D0A000000001CB53BA103C9CDE906
:1028100000016B4601226B21682000F0BEFD0DF126
:10282000010301221921682000F0B7FD0DF1020318
:1028300001221A21682000F0B0FD0DF103030122EE
:102840001B21682000F0A9FD01AB01221C2168209A
:1028500000F0A3FD1CBD38B504466B46022221469C
:10286000682000F0ADFD9DF801009DF8001000EB20
:10287000012000B238BD70B50446002524B93B20C4
:10288000FFF7E9FF05460CE0012C04D13D20FFF7DE
:10289000E2FF054605E0022C03D13F20FFF7DBFFF6
:1028A0000546284670BD70B50446002524B943206E
:1028B000FFF7D1FF05460CE0012C04D14520FFF7BE
:1028C000CAFF054605E0022C03D14720FFF7C3FFEE
:1028D0000546284670BD10B50020FFF7E4FF084903
:1028E00008800120FFF7C7FF064908800220FFF794
:1028F000C2FF0549088010BD000704180100000050
:10290000280000202A0000202C00002008B501210A
:102910000820FDF77FFF01211020FDF77BFF4FF41A
:102920006040ADF8000010208DF8030003208DF802
:1029300002006946FE48FDF7B1FC4FF40050ADF8C7
:1029400000006946FB48FDF7A9FC08BD70B50446C8
:102950000E462EB14FF40051F648FDF74CFD04E051
:102960004FF40051F348FDF748FD00251BE04FF4FC
:102970000041EF48FDF741FD04F0800028B14FF41D
:102980008041EB48FDF737FD04E04FF48041E84813
:10299000FDF733FD4FF40041E548FDF72CFD6006DF
:1029A000040E681CC5B2082DE1DB4FF40051E1486C
:1029B000FDF721FD70BD70B504460D4605F1B0016F
:1029C000C8B20021FFF7C2FF102141EA1410002114
:1029D000FFF7BCFF04F00F0141F001000021FFF7F9
:1029E000B5FF70BD10B500218D20FFF7AFFF0021AE
:1029F0001420FFF7ABFF0021AF20FFF7A7FF10BDAA
:102A000010B500218D20FFF7A1FF00211020FFF756
:102A10009DFF0021AE20FFF799FF10BD70B5002487
:102A200019E004F1B001C8B20021FFF78FFF0021C7
:102A30000846FFF78BFF00211020FFF787FF0025D6
:102A400005E001210020FFF781FF681CC5B2802D41
:102A5000F7DB601CC4B2082CE3DB70BD2DE9F0414C
:102A600006460C4617464FF000080025A7F1200047
:102A700000F0FF087F2E02DD0026A01CC4B2601CFF
:102A8000C1B23046FFF797FF00250AE008EB480186
:102A9000A94A02EB4101485D0121FFF757FF681C7D
:102AA000C5B2062DF2DBBDE8F0812DE9F041044608
:102AB0000F46154600260DE0AA5D39462046FFF771
:102AC000CDFFA01DC4B2782C02DD0024B81CC7B213
:102AD000701CC6B2A85D0028EED1BDE8F0812DE9DA
:102AE000F04180460E461546002731464046FFF726
:102AF00062FF00240AE0914A02EB8511085D012182
:102B0000FFF724FF781CC7B2601CC4B2102CF2DBA4
:102B1000701CC1B24046FFF74EFF00240CE0690074
:102B2000491C864A02EB4111085D0121FFF70EFFA7
:102B3000781CC7B2601CC4B2102CF0DBBDE8F08179
:102B40002DE9F05F06460F4690461C46DDF828A0AA
:102B50004FF0000BE11704EB5171C910A4EBC10158
:102B600031B92046E11704EB5171C1F3C70506E006
:102B70002046E11704EB5171C910491CCDB23D4606
:102B800015E029463046FFF716FFB1460BE05946DF
:102B90000BF1010B1AF801000121FFF7D7FE09F133
:102BA000010000F0FF09C145F1DB681CC5B2A54278
:102BB000E7DBBDE8F09F2DE9F05F06460F46904643
:102BC0001C46DDF828A04FF0000BE11704EB517113
:102BD000C910A4EBC10131B92046E11704EB5171D2
:102BE000C1F3C70506E02046E11704EB5171C91097
:102BF000491CCDB23D4617E029463046FFF7DBFEC3
:102C0000B1460DE059460BF1010B1AF80110C9430A
:102C1000C8B20121FFF79AFE09F1010000F0FF0997
:102C2000C145EFDB681CC5B2A542E5DBBDE8F09FFE
:102C300010B5FFF76BFE4FF400513D48FDF7DDFB8B
:102C4000642001F0EEF84FF400513948FDF7D3FB52
:102C50000021AE20FFF77AFE00210846FFF776FE3E
:102C600000211020FFF772FE00214020FFF76EFECA
:102C700000218120FFF76AFE0021CF20FFF766FECA
:102C80000021A120FFF762FE0021C820FFF75EFEB1
:102C90000021A620FFF75AFE0021A820FFF756FECC
:102CA00000213F20FFF752FE0021D320FFF74EFE08
:102CB00000210846FFF74AFE0021D520FFF746FE17
:102CC00000218020FFF742FE0021D920FFF73EFEC1
:102CD0000021F120FFF73AFE0021DA20FFF736FE4F
:102CE00000211220FFF732FE0021DB20FFF72EFE2D
:102CF00000214020FFF72AFE00212020FFF726FEBA
:102D000000210220FFF722FE00218D20FFF71EFE8A
:102D100000211420FFF71AFE0021A420FFF716FE61
:102D20000021A620FFF712FE0021AF2008E00000DE
:102D3000000C0140001001409A7600082E0000208F
:102D4000FFF704FE0021AF20FFF700FEFFF766FE4D
:102D500000210846FFF72FFE10BD000000B587B028
:102D600001214FF40170FDF755FD4FF40040FDF7D0
:102D7000B5FC2020ADF8040000208DF8070001A963
:102D80002848FDF78BFA002002908DF80C000120F6
:102D90008DF80D004FF46020049000200590052070
:102DA0008DF8180002A92048FEF7D1FE0523012264
:102DB00019461D48FEF763FF01211B48FEF7F3FE8D
:102DC0001948FEF712FF00BF1748FEF713FF00284F
:102DD000FAD11548FEF718FF00BF1348FEF719FF98
:102DE0000028FAD101211048FEF71DFF07B000BDF1
:102DF0002DE9F0470024A1460B48FEF7A7FF8146C6
:102E0000484603F0B9F80746084A094B02F0B9FFF3
:102E1000054603F067F90446204603F0D3F880B274
:102E2000BDE8F0870008014000240140C7BAB88D12
:102E300006F0DE3F00B587B001210420FDF7EAFC73
:102E400018208DF81B004FF40070ADF81800032017
:102E50008DF81A0006A97348FDF720FA04208DF8B2
:102E60001B000002ADF8180003208DF81A0006A917
:102E70006C48FDF713FA01218803FDF7CBFC4FF4F2
:102E8000165002900020ADF814000C20ADF812008E
:102E90000020ADF81000ADF80E00ADF80C0002A94E
:102EA0006148FEF76CFC012240F225515E48FEF7B6
:102EB000FEFC01215C48FEF7EEFC25208DF80400A5
:102EC00003208DF805008DF8060001208DF807001D
:102ED00001A8FDF71AF907B000BD10B586B0044689
:102EE00001218804FDF7A3FC01210820FDF792FCD5
:102EF0004FF48060ADF8140018208DF817000320FF
:102F00008DF8160005A94948FDF7C8F94FF400608F
:102F1000ADF8140004208DF8170005A94348FDF70B
:102F2000BDF91CB94FF41650019004E0012C02D1F8
:102F30004FF4E13001900020ADF80800ADF80A0030
:102F4000ADF80C00ADF810000C20ADF80E0001A992
:102F50003748FEF714FC012240F225513448FEF7B1
:102F6000A6FC01213248FEF796FC4FF4A060FDF765
:102F7000C7F827208DF8000000208DF801000420FC
:102F80008DF8020001208DF803006846FDF7BDF8BA
:102F900006B010BD10B5044621462548FEF7E8FCF2
:102FA00000BF40212248FEF751FD0128F9D110BD94
:102FB00070B504460D46002605E014F8010BFFF736
:102FC000E9FF701C86B2AE42F7DB70BD70B50446F7
:102FD000204602F03DFD86B2002505E014F8010B05
:102FE000FFF7D8FF681C85B2B542F7DB70BD10B59E
:102FF0000446C4F30F210E48FEF7BAFC00BF40217F
:103000000B48FEF723FD0128F9D1E1B20848FEF78D
:10301000AFFC00BF40210648FEF718FD0128F9D19A
:1030200010BD00000008014000380140000C0140C4
:103030000048004008B50720009002E00098401EBC
:10304000009000980028F9D108BD10B54FF4007029
:10305000E549086040100860FFF7ECFFE2480838D7
:10306000006808B9012000E0002000F4007008B1F9
:10307000002010BD4FF40070DB49091D0860FFF708
:10308000D9FFD9480838006800F4007008B1002062
:10309000EFE74FF40070D449091D0860FFF7CAFF3D
:1030A0000120E6E710B54FF48070CF49091D086094
:1030B000FFF7C0FF4FF40070CB49091D0860FFF710
:1030C000B9FF4FF48070C8490860FFF7B3FF4FF4B1
:1030D0000070C5490860FFF7ADFF10BD10B54FF493
:1030E0008070C149091D0860FFF7A4FF4FF400700C
:1030F000BD49091D0860FFF79DFF4FF48070BA4974
:103100000860FFF797FF4FF48070B749091D08600A
:10311000FFF790FF10BD10B54FF48070B249091D44
:103120000860FFF787FF4FF40070AF490860FFF7B2
:1031300081FF4FF48070AC490860FFF77BFF4FF4CC
:103140008070A949091D0860FFF774FF10BD10B514
:103150004FF48070A449091D0860FFF76BFF4FF41E
:103160000070A1490860FFF765FF4FF480709E4929
:103170000860FFF75FFF9C480838006800F40070A3
:1031800030B14FF480709849091D0860002010BDCF
:103190004FF480709449091D08600120F7E770B56D
:1031A000044608251DE04FF480708F49091D086012
:1031B000FFF740FF04F0800020B14FF400708A490F
:1031C000086004E04FF400708749091D086060063C
:1031D000040EFFF72FFF4FF4807083490860FFF75C
:1031E00029FF281EA5F10101CDB2DCD14FF480707A
:1031F0007D49091D086070BD70B508250024A8012F
:103200007949086016E06006040E4FF48070764934
:10321000091D0860FFF70EFF4FF4807072490860C7
:10322000FFF708FF70480838006800F4007008B124
:1032300044F00104281EA5F10101CDB2E3D14FF401
:1032400080706949091D0860204670BD08B50121DC
:103250000820FDF7DFFA4FF44070ADF800000220BF
:103260008DF8020014208DF8030069465E4810387E
:10327000FDF714F808BD70B504460D461646FFF775
:10328000E4FE08B9002070BD002141EA4401C8B243
:10329000FFF785FFFFF75BFF18B9FFF703FF00207B
:1032A000F1E72846FFF77BFFFFF751FF3046FFF7B6
:1032B00076FFFFF74CFFFFF7F5FE0120E3E72DE96E
:1032C000F04105460E4617469846FFF7BEFE10B978
:1032D0000020BDE8F081002141EA4501C8B2FFF7B6
:1032E0005EFFFFF734FF18B9FFF7DCFE0020F0E7C0
:1032F0003046FFF754FFFFF72AFF00240BE018F8D1
:103300000400FFF74CFFFFF722FF18B9FFF7CAFED2
:103310000020DEE7641CBC42F1DBFFF7C3FE0120A6
:10332000D7E72DE9F04105460F4614461E46FFF744
:103330008CFE10B90020BDE8F081002141EA450172
:10334000C8B2FFF72CFFFFF702FF18B9FFF7AAFE7C
:103350000020F0E73846FFF722FFFFF7F8FEFFF7FF
:1033600074FE012101EB4501C8B2FFF718FFFFF71A
:10337000EEFE0CE0FFF740FF3070012C02D1FFF7AA
:10338000CAFE01E0FFF7AAFE761C601EC4B2002C44
:10339000F0D1FFF787FE0120CDE72DE9F04104468B
:1033A0000D4616461F463B46324629462046FFF745
:1033B00086FF10B10020BDE8F0814FF0FF30FAE742
:1033C0002DE9F04104460D4616461F463B4632465F
:1033D00029462046FFF7A5FF10B10020BDE8F08187
:1033E0004FF0FF30FAE70000100C014000B589B043
:1033F0000121C802FDF70EFA01210420FDF70AFAA7
:103400004FF40060ADF8140048208DF8170005A9AE
:103410009148FCF743FF0420ADF8140010208DF80C
:10342000170002208DF8160005A98B48FCF736FF1F
:103430004FF6FF70ADF80C004720ADF808000020F3
:10344000ADF80E00ADF80A0002A98448FDF71AFB9A
:103450000C20ADF818000020ADF81A000120ADF8DE
:103460001C000020ADF81E00ADF8200006A97B4826
:10347000FDF79BFD1B208DF8040002208DF8050050
:1034800000208DF8060001208DF8070001A8FCF748
:103490003CFE012211217148FDF76BFE01216F48AE
:1034A000FDF74CFE09B000BD10B504216A48FCF7D9
:1034B000A2FF142000F0A8FC04216748FCF79DFF40
:1034C0006748007800F08000E8B16548007800F0B7
:1034D0003F00644908600846008800040860084608
:1034E00000686149096808445E4908600846006848
:1034F000AA21484342F2107190FBF1F0594908604B
:1035000000205749086057480068122832D14FF40C
:1035100080515648FCF76FFF4FF4FA7000F081FCC1
:103520004FF480515148FCF768FF4FF4FA7000F0F7
:1035300078FC4FF480514D48FCF75DFF4FF4FA7072
:1035400000F06FFC4FF480514848FCF756FF48A04C
:1035500000F096FA40F2DC5000F063FC0021C81E37
:1035600001F059FF4FF4FA6000F05BFC00210846BF
:1035700001F051FF10BD10B53948007800F080000F
:1035800000284CD101213548FEF7A1F8D0B13448CC
:10359000007800F04000A8B13148007800F03F000A
:1035A0003F280AD12E48006840F080002C4908606E
:1035B0004FF6FF702C49086004E029480068401C61
:1035C0002749086010212548FEF781F838B32448C0
:1035D000007800F0400078B12148006840F0800099
:1035E0001F4908601D48FEF75CF81F49086000216C
:1035F0001A48FDF79BFF12E00020194908601A499C
:10360000086000211548FEF72DF81548006840F0C5
:1036100040001349086002211048FDF787FF11217F
:103620000E48FEF765F810BD10B54FF400610A486A
:10363000FCF7C7FE58B9322000F0F3FB4FF40061ED
:103640000548FCF7BEFE10B901200D49086010BD09
:103650000B4800687047000000080140002C014042
:10366000F0020020F8020020F4020020000C0140CB
:10367000C7B0B7BDD3D0D5CFB0ADCEEF00000000FE
:10368000FC02002008B501210420FDF7C3F8012148
:103690000820FDF7BFF81820ADF8000010208DF8C5
:1036A000030003208DF802006946A648FCF7F6FDEA
:1036B0000320ADF800006946A348FCF7EFFD182190
:1036C000A048FCF798FE03219F48FCF794FE08BD34
:1036D00008B501210220FDF7AAF801210420FDF719
:1036E00099F801210820FDF795F8C020ADF80000F9
:1036F00018208DF8030003208DF8020069469148D8
:10370000FCF7CCFD08BDF0B587B0002700240025EC
:10371000002640F2E730ADF814000320ADF81000A9
:103720000020ADF81600ADF8120004A98748FDF797
:10373000A9F96020ADF800000120ADF80200ADF855
:1037400006700020ADF8080069468048FDF7D7F9FB
:1037500008217E48FDF722FEADF8064069467B4809
:10376000FDF70FFA08217948FDF721FEADF8065064
:1037700069467648FDF752FA08217448FDF724FEA1
:10378000ADF8066069467148FDF793FA08216F4865
:10379000FDF723FE01216D48FDF7D0FD01216B48A7
:1037A000FDF7CCFC07B0F0BD10B5FFF76BFFFFF7DE
:1037B0008FFFFFF7A8FF10BD00B589B001210846B3
:1037C000FDF735F801210420FDF724F802A8FCF7E5
:1037D000F0FD0320ADF8080004208DF80B0002A9CD
:1037E0005848FCF75BFD1C208DF8040000208DF884
:1037F000050003208DF8060001208DF8070001A8C0
:10380000FCF783FC4FF08040FDF768F806A8FDF751
:1038100065FC0020ADF818004FF6FF70ADF81C00F5
:103820000020ADF81E00ADF81A0006A94FF0804048
:10383000FDF728F900231A4603214FF08040FDF7D9
:1038400030FD03A8FDF75DFC0620ADF8140003A9C8
:103850004FF08040FDF7A9FB01218807FDF734FFF9
:10386000012211469007FDF784FC01218807FDF72E
:1038700065FC09B000BD00B589B001210420FCF74A
:10388000D6FF01210820FCF7C5FF02A8FCF791FD37
:10389000C020ADF8080004208DF80B0002A92A48CA
:1038A000FCF7FCFC1E208DF8040000208DF80500BC
:1038B00002208DF8060001208DF8070001A8FCF712
:1038C00024FC2348FDF70AF806A8FDF707FC0020B2
:1038D000ADF818004FF6FF70ADF81C000020ADF8F1
:1038E0001E00ADF81A0006A91948FDF7CBF8002311
:1038F0001A4603211648FDF7D4FC03A8FDF701FC86
:103900000620ADF8140003A91148FDF74EFB012174
:103910000F48FDF7D9FE012211460D48FDF729FC9D
:1039200001210B48FDF70AFC09B000BD10B50121CB
:103930008807FDF7C9FE10BD10B501210448FDF749
:10394000C3FE10BD00080140000C0140000400400F
:103950000008004008B501210420FCF75BFF4FF48C
:103960008070ADF8000010208DF8030003208DF862
:10397000020069460448FCF791FC4FF4807102484C
:10398000FCF739FD08BD00000008014008B5012121
:103990000820FCF73FFF4FF48050ADF800000320F3
:1039A0008DF8020010208DF8030069460148FCF7ED
:1039B00075FC08BD000C014010B504462146364890
:1039C000FDF7D6FF00BF40213348FEF73FF801283E
:1039D000F9D110BD70B504460D46002605E014F877
:1039E000010BFFF7E9FF701CC6B2AE42F7DB70BDFA
:1039F0002DE9F0418EB080460E4600270024304667
:103A000002F026F8C5B2FD208DF8040000208DF8E4
:103A10000500E81CC0B28DF8060001208DF80700F3
:103A200040EA0810C0B28DF8080000BF03E001A80A
:103A3000005D4740641C052CF9D3002402E0305D92
:103A40004740641CAC42FAD32A4631460DF10900C6
:103A500001F0C8FF681D01A90F54A81DC1B201A83B
:103A6000FFF7B8FF0EB0BDE8F08170B50446204600
:103A700001F0EEFFC5B229462046FFF7ABFF70BD4F
:103A800010B5044621460020FFF7B2FF2146002072
:103A9000FFF7AEFF10BD00000038014000200DE030
:103AA000244931F81010002906DD224931F81010A0
:103AB000491E204A22F81010411CC8B20528EFDB2D
:103AC000704770B5FEF7B8FD1B4800684FF47A7276
:103AD000B0FBF2F1B1F1807F01D301201DE021F0B4
:103AE0007F40401E4FF0E022506150170F22002807
:103AF00007DA13071D0E114B00F00F04241F1D558C
:103B000003E013071C0E0E4B1C5400BF00204FF0A7
:103B1000E022906107201061002008B100BFFEE79D
:103B20004FF0E020006940F001004FF0E021086113
:103B300070BD0000380400201400002018ED00E0E3
:103B400000E400E02DE9F0413D48008808B1BDE8FF
:103B5000F0814FF47A703A4908803A480088401C56
:103B600038490880FFF744F937490880084600883B
:103B700002F002FA06460022344B02F074F90446C1
:103B80004FF03332324B02F07DFA19D24FF48051AC
:103B90003048FCF730FC4FF47A7000F042F94FF4F3
:103BA00080512C48FCF729FC4FF480712A48FCF71F
:103BB00022FC4FF47A7000F034F928A0FFF760FF80
:103BC00000BFC4E7FEF7D1FD01F0A6FE01F00AF840
:103BD000FFF777FF00F010FD31E0FFF7B3FF184863
:103BE000408828B9142016494880204800F015FA6A
:103BF0001348808818BB1420114988801C4800781D
:103C000008B900F057FD1A480078012801D100F0EA
:103C1000D5FDFFF749FC17480078032805D1FFF7C9
:103C200017FD10B1002001F07BFD12480078042838
:103C300005D1FFF70DFD10B1012001F071FDCCE7BA
:103C400038040020A8030020AA03002000005940E7
:103C500033331B40000C014000080140B5E7B3D8E6
:103C6000B5E7C1BFB2BBD7E300000000B803002036
:103C700002030020AC030020704700BFFEE700BF36
:103C8000FEE700BFFEE700BFFEE7704770477047E2
:103C9000704710B5FFF702FF52480078401C5149A9
:103CA000087051480078401C4F49087001F048FBEB
:103CB0004C480078052805DB00204A49087001F0CF
:103CC00068F92CE047480078012804D1FEF703FE8C
:103CD00001F0EFF923E043480078022802D101F017
:103CE0006DFA1CE03F480078032810D13F48007867
:103CF000401C3E4908700846007805280FDB01F09B
:103D00008BFA0020394908703749087007E03548B8
:103D10000078042803D101F034F801F0B1F810BDA7
:103D200010B540F225513248FDF7A6FEB8B1314832
:103D30000078802802DB00202E4908702C48FDF70F
:103D40001BFEC1B22B4802780078401C294B18702A
:103D50002948815440F225512548FDF7B7FE10BD92
:103D600010B540F225512548FDF786FE10B32348D3
:103D7000FDF702FEC4B22248008800F40040C8B932
:103D80001F48008800F4804060B10A2C03D0002056
:103D90001B49088020E01A48008840F40040184978
:103DA000088019E00D2C06D11548008840F48040A9
:103DB0001349088010E012480088C0F30D00114933
:103DC0000C540F480088401C0D49088008460088A4
:103DD000C72801DD0020088040F225510748FDF783
:103DE00075FE10BD080300200A030020090300200F
:103DF00000480040EE020020B803002000380140D7
:103E00000003002042040020014605E0002001E0FC
:103E1000421CD0B20A28FBDB0A1EA1F10101F5D138
:103E2000704710B5044603E04FF47A70FFF7ECFFDB
:103E3000201EA4F10104F7D110BD704730B5024631
:103E40000023002000BF04E012F8014B60405C1C1E
:103E5000E3B28B42F8DB30BDF0B505460E461446A2
:103E6000002731462846FFF7E9FF0746A74201D160
:103E70000120F0BD0020FCE730B502460020002301
:103E800005E012F8015B2C18E0B25C1CE3B28B4237
:103E9000F7DB30BD30B502460B464FF6FF70002110
:103EA00012E0555C684000240AE000F0010525B1ED
:103EB0004AF2010585EA600000E04010651CECB2A2
:103EC000082CF2DB4D1CE9B29942EADB30BD000060
:103ED0002DE9F0478CB0FD49FD48006801F0E2FD96
:103EE000824602F0BBF804460D46F849F9480068DE
:103EF00001F0D8FD824602F0B1F806460F46F349BC
:103F0000F548006801F0CEFD824602F0A7F8804631
:103F100042460B46F1A104A8CDE90067CDE9024570
:103F200002F0CEFC04A8FFF751F80CB0BDE8F08712
:103F30002DE9F0478CB08246BAF1000F1BD1EC4955
:103F4000886802F08BF804460D46E949486802F09B
:103F500085F806460F46E649086802F07FF8804675
:103F600042460B46E3A104A8CDE90067CDE902452E
:103F700002F0A6FC1DE0BAF1010F1AD1E2498868EF
:103F800002F06CF804460D46DF49486802F066F816
:103F900006460F46DC49086802F060F88046424653
:103FA0000B46DAA104A8CDE90067CDE9024502F08D
:103FB00087FC04A8FFF70AF80CB0BDE8F08700B54D
:103FC00089B0D748008800EB80004200D5480388BC
:103FD000D5A101A802F074FC01A8FEF7F7FF09B013
:103FE00000BD00B589B0CE48008800EB80004200DB
:103FF000CC480388CFA101A802F062FC01A8FEF71B
:10400000E5FF09B000BD0146002000BF0A2291FB78
:10401000F2F1401C0029F9D170472DE9F04F8BB027
:10402000064634464FF00009CA464FF0060BA6E29A
:10403000207823287ED1C2A1601C01F011FD0190DF
:1040400003F016FBCDE9020101F0EFFFC5B2002D30
:1040500070DD642D6EDA0A2D14DA6119081DB9A11C
:1040600001F0FEFC019003F003FBCDE9020101F039
:10407000DCFFC7B23A462946E01CFFF7EDFE0A9086
:10408000E41C4FE00B2D39DD0E2D37DA6119481D88
:10409000ACA101F0E5FC019003F0EAFACDE90201E0
:1040A00001F0C3FFC7B200BFA7A104F10E0001F0E9
:1040B000D7FC019003F0DCFACDE9020101F0B5FF75
:1040C00000F0FF0800BF4046FFF79DFF04900498F2
:1040D000281AC1B2201DFFF7B1FE05900598059082
:1040E000059880EA08000690241D0698874202D1B0
:1040F00001200A9016E000200A9013E06119481D83
:1041000090A101F0ADFC019003F0B2FACDE90201FB
:1041100001F08BFFC7B23A462946201DFFF79CFEEF
:104120000A90241D0A98002804D0884800780128A5
:104130000AD100E009E286A1204601F077FC20B117
:104140000021084601F067F94BE182A1204601F009
:104150006DFC60B37AA1204601F082FC78A10020BA
:1041600001F07EFC019003F083FACDE9020101F039
:10417000B9FF099074A1002001F072FC019003F0D6
:1041800077FACDE9020101F0ADFF0890089880F0C0
:1041900000407149019001F0DDFC6F4903900998DE
:1041A00001F0D8FC0290039901F035F919E16BA1F7
:1041B000204601F03BFC88B1BBF1080F01DA09F1A0
:1041C000010909F10601484201F0BCFE01460390D5
:1041D000002001F020F909F1060B02E160A1204660
:1041E00001F024FC98B1BBF1080F04DABBF1030F16
:1041F00001DD0AF1010AAAF1060001F0A3FE014661
:104200000390002001F007F9CAF1060BE9E055A17F
:10421000204601F00BFC68B349A1204601F020FCC8
:1042200047A1002001F01CFC019003F021FACDE928
:10423000020101F057FF099043A1002001F010FC9A
:10424000019003F015FACDE9020101F04BFF08904F
:10425000099880F000404FF08041019001F0ACFCE3
:1042600041490390089801F0A7FC0290039901F0DE
:10427000D2F8B6E03DA1204601F0D8FB28B330A12A
:10428000204601F0EDFB2EA1002001F0E9FB01909A
:1042900003F0EEF9CDE9020101F024FF099028A115
:1042A000002001F0DDFB019003F0E2F9CDE902010D
:1042B00001F018FF089024A1002001F0D1FB01902B
:1042C00003F0D6F9CDE9020152E05FE0000034438B
:1042D00084030020880300208C030020562C252E08
:1042E00030662C252E30662C252E30660D0A0000F7
:1042F0005803002041502C252E32662C252E326684
:104300002C252E32660D0A006403002053502C2504
:104310002E32662C252E32662C252E32660D0A0092
:10432000AA030020A8030020522C25642C25642C0D
:104330000D0A0000522C25642C25640D0A00000093
:104340002C0000003B0000002A000000AC0300200D
:1043500043530000434A0000000020414158000040
:1043600042580000434D00000000A04053430000AD
:1043700001F0B8FE07908A49089801F0EBFB039022
:104380000146079A099801F006F92AE085A120461E
:1043900001F04CFB80B14FF480518348FCF72BF8BF
:1043A0003220FFF73EFD4FF480517F48FCF725F89F
:1043B00000207E49087014E07DA1204601F036FB04
:1043C00078B14FF480517848FCF715F83220FFF7A8
:1043D00028FD4FF480517448FCF70FF80120734911
:1043E000087074A1204601F021FB18B10120724928
:1043F0000870C3E071A1204601F018FB18B103203A
:104400006D490870BAE06EA1204601F00FFB38B18B
:104410000420694908706B49002000F0FCFFADE002
:1044200069A1204601F002FBA8B3AFF2EC012046DF
:1044300001F016FBAFF2F801002001F011FB019032
:1044400003F016F9CDE9020101F04CFE5F49086066
:10445000AFF21411002001F003FB019003F008F902
:10446000CDE9020101F03EFE58494860AFF2281143
:10447000002001F0F5FA019003F0FAF8CDE902010D
:1044800001F030FE51498860002001F06CFA0020F4
:10449000FFF74EFD72E0FFE74DA1204601F0C6FA9E
:1044A000A8B3AFF26411204601F0DAFAAFF270114E
:1044B000002001F0D5FA019003F0DAF8CDE902010D
:1044C00001F010FE43490860AFF28C11002001F0AA
:1044D000C7FA019003F0CCF8CDE9020101F002FE29
:1044E0003C494860AFF2A011002001F0B9FA0190F8
:1044F00003F0BEF8CDE9020101F0F4FD3549886012
:10450000012001F030FA0120FFF712FD36E0FFE74D
:1045100031A1204601F08AFA18B10020FFF708FD0A
:104520002CE02EA1204601F081FA18B10120FFF7FE
:10453000FFFC23E02AA1204601F078FA30B10020E8
:1045400001F02CFA0020FFF7F3FC17E025A120462C
:1045500001F06CFA30B1012001F020FA0120FFF7E0
:10456000E7FC0BE020A1204601F060FA10B1FFF754
:1045700026FD03E01DA1204601F058FA641CA01B93
:104580001B4909788842FFF653AD0020184908708E
:104590008021184801F03FFA0BB0BDE8F08F000011
:1045A00000002041304C0000000C014002030020BC
:1045B00030450000534E4B00AC03002053554600DD
:1045C000535541000000A0405341500058030020C3
:1045D000535350006403002047415000475350009C
:1045E0005241000052560000524200005253000057
:1045F000EE020020B803002000B5B1B0202129A8A8
:1046000001F009FA202121A801F005FA202119A8BA
:1046100001F001FA202111A801F0FDF9202109A8DB
:1046200001F0F9F9202101A801F0F5F9DEA2152128
:1046300029A802F031F929AA00210846FEF735FA27
:10464000DFA2152121A802F027F921AA02210020CA
:10465000FEF72BFAE0A2152119A802F01DF919AAFC
:1046600003210020FEF721FAE1A2152111A802F092
:1046700013F911AA04210020FEF717FAE2A215216E
:1046800009A802F009F909AA05210020FEF70DFA90
:10469000E3A2152101A802F0FFF801AA06210020DB
:1046A000FEF703FA4FF47A70FFF7BBFBFEF7B6F99B
:1046B00031B000BDF0B58BB0202103A801F0ABF9FB
:1046C000DD480078401CDC49087008460078062860
:1046D00001DB00200870D848007820B9D7A200215B
:1046E0000846FEF7E2F9D4480078012815D1FEF714
:1046F000AFFF38B1D748D8A21521036803A802F04C
:10470000CBF805E0DBA3DCA2152103A802F0C4F876
:1047100003AA01210020FEF7C8F9C7480078022843
:104720000CD1DC48B0F90030DBA2152103A802F05F
:10473000B3F803AA02210020FEF7B7F9BE480078BB
:1047400003280CD1DA48B0F90030DAA2152103A809
:1047500002F0A2F803AA03210020FEF7A6F9B6484A
:10476000007804280FD1D948006801F077FCD8A25E
:10477000CDE90001152103A802F08EF803AA042157
:104780000020FEF792F9AC480078052814D1D648ED
:10479000008801F0F1FB06460022D44B01F063FBD8
:1047A000D3A2CDE90001152103A802F075F803AAF0
:1047B00005210020FEF779F90BB0F0BD2DE9F0419D
:1047C0008AB0202102A801F026F9D0480078401CC8
:1047D000CE49087008460078042801DB00200870E4
:1047E000CA48007820B9CAA200210846FEF75DF940
:1047F000C648007801280AD19EA39FA2152102A8CD
:1048000002F04AF802AA02210020FEF74EF9BF4842
:104810000078022814D1B448008801F0ADFB0546A9
:104820000022B24B01F01FFBB1A2CDE9000115211E
:1048300002A802F031F802AA04210020FEF735F99F
:10484000B2480078032820D1A748008801F094FBE3
:1048500005460022A54B01F006FB074601F042FC8D
:104860000446204601F0FAFB05464FF03332AC4BCC
:1048700001F020FC0AD2ABA2152102A802F00CF82C
:1048800002AA06210020FEF710F989E0204601F077
:10489000E5FB05464FF06632A94B01F00BFC14D244
:1048A000204601F0DBFB05464FF033329C4B01F014
:1048B000E9FB0AD2A3A2152102A801F0EDFF02AA8A
:1048C00006210020FEF7F1F86AE0204601F0C6FB61
:1048D0000546A34AA34B01F0EDFB14D2204601F09C
:1048E000BDFB05464FF06632954B01F0CBFB0AD27B
:1048F0009DA2152102A801F0CFFF02AA06210020E7
:10490000FEF7D3F84CE0204601F0A8FB05469D4A8F
:104910009D4B01F0CFFB13D2204601F09FFB0546D3
:104920008F4A904B01F0AEFB0AD298A2152102A843
:1049300001F0B2FF02AA06210020FEF7B6F82FE030
:10494000204601F08BFB05460022974B01F0B2FB9D
:1049500013D2204601F082FB05468A4A8A4B01F0B9
:1049600091FB0AD291A2152102A801F095FF02AA9B
:1049700006210020FEF799F812E0204601F06EFBB8
:1049800005460022884B01F07DFB09D28EA215213D
:1049900002A801F081FF02AA06210020FEF785F897
:1049A0000AB0BDE8F0810000092042616C616E63CD
:1049B000696E672063617228312920202020000061
:1049C0003137313231383733202020202020202049
:1049D00046594D20202020003137313231383739C7
:1049E00020202020202020205A4A4A202020200059
:1049F000313731323230323920202020202020201F
:104A000057594D202020200031373132323335398B
:104A100020202020202020204E5454202020200020
:104A200031373132323332392020202020202020EB
:104A30005751592020202000030300204D6F64654A
:104A40003A20436F6D706C656D656E74617279208C
:104A500020000000F802002044697374616E6365F1
:104A60003A2020256428636D292020202020202042
:104A7000000000007878000044697374616E63651B
:104A80003A2020257328636D292020202020202013
:104A9000000000002C030020456E636F4C656674B7
:104AA0003A202025642020202020202020200000E3
:104AB0002E030020456E636F52696768743A2025A3
:104AC00064202020202020202020000084030020BB
:104AD000416E676C653A202020202025302E3166FB
:104AE0002020202020200000AA03002000005940A0
:104AF000426174746572793A20202025302E316627
:104B00002856292020202020200000000403002017
:104B100062616C616E63696E6720636172000000A0
:104B200033331D40426174746572793A202020311C
:104B300030302520202020202020202000000000D0
:104B400066661C40426174746572793A2020203890
:104B500030252020202020202020202000000000C0
:104B60009A99999999991B40426174746572793A3E
:104B7000202020363025202020202020202020200A
:104B800000000000CDCCCCCCCCCC1A404261747477
:104B90006572793A202020343025202020202020E2
:104BA000202020200000000000001A4042617474A0
:104BB0006572793A202020323025202020202020C4
:104BC000202020200000000042617474657279206A
:104BD0006C6F7721212120202020202020202020E0
:104BE000000000000020FE490880FE490880FE49C0
:104BF0000860FE490860FE490860FE490860FE49F9
:104C00000860FE490860FE490860FE490860FE49E8
:104C10000860FE490860FE490860FE490860FE49D8
:104C20000860FE490860FE490860FE490860FE49C8
:104C30000860FE490860FE490860FE490870FE49A8
:104C40000870FE490870704770B504460D46002193
:104C5000FB48006801F062FA34D11E2C0DDD1E2DD8
:104C60000BDDF849E748006801F062FA05D2F64921
:104C7000E448006801F052FA11D314F11E0F1DDA56
:104C800015F11E0F1ADAEF49DE48006801F050FAFC
:104C900014D2ED49DB48006801F040FA0ED2EB482F
:104CA0000088401CE94908800846008832280CDD4D
:104CB000002008800120E649086006E00020E34962
:104CC000088002E00020E149088070BD70B5E0482E
:104CD000006800B970BDDF49CA48006801F028FAD1
:104CE00048D2DD49C748006801F018FA42D2DB48D3
:104CF0000088401CD94908800846008832283EDBDD
:104D000000200880D6480168BE48006800F01CFFFB
:104D1000064601F0A3F90446D24AD34B01F0B2F99A
:104D200020D2CF480168B748006800F00DFF064662
:104D300001F094F90446CB4ACC4B01F0BBF911D2F7
:104D4000CB480088401CCA490880084600880428CF
:104D50000BDB00200880C1490880A9490860BC49D4
:104D6000086002E00020C2490880A6480068BC49EB
:104D7000086004E00020B9490880BD49088000BFF0
:104D8000A8E710B59648B0F900109648B0F90000B1
:104D9000FFF75AFFFFF79AFFAD48006830B1B548FA
:104DA000007840F00200B349087005E0B14800788F
:104DB00020F00200AF490870A3499248006801F052
:104DC000B7F905D39F498F48006801F0A7F906D2CB
:104DD000A848007840F00400A649087005E0A548FE
:104DE000007820F00400A349087010BD70B5044697
:104DF0000D46002C09DA08219F48FBF7FCFA102128
:104E00009D48FBF7FAFA644207E010219A48FBF745
:104E1000F2FA08219848FBF7F0FA002D09DA01218F
:104E20009648FBF7E8FA02219448FBF7E6FA6D4250
:104E300007E002219148FBF7DEFA01218F48FBF7DA
:104E4000DCFAB5F57A7F01DB40F2E735B4F57A7F1D
:104E500001DB40F2E7348748007840B10021884800
:104E6000FCF704FC00218648FCF702FC07E0A9B22D
:104E70008348FCF7FBFBA1B28148FCF7F9FB70BD4E
:104E800070B5644801686448006800F05DFE04463F
:104E900064480168204600F057FE614908605D489B
:104EA00001685D48006800F04FFE04465D480168F7
:104EB000204600F0F7FD594908605948006801F0A4
:104EC00068F8002807DD00215548006800F0EAFD79
:104ED000534908600CE05248006801F05AF8002875
:104EE00006DA00214E48006800F02EFE4C490860AA
:104EF0004A48006801F04DF8002807DD00214748C6
:104F0000006800F0CFFD454908600CE043480068A8
:104F100001F03FF8002806DA00214048006800F060
:104F200013FE3E4908603E48006801F032F8B0F5D3
:104F30007A7F02DB53483A4908603948006801F03B
:104F400028F810F57A7F02DC4F483549086033486D
:104F5000006801F01EF8B0F57A7F02DB49482F495E
:104F600008602E48006801F014F810F57A7F02DC22
:104F700045482A4908602948006801F00AF80446B3
:104F80002748006801F005F805462146FFF72EFF87
:104F900070BD10B54FF08040FCF787FB00B211499F
:104FA00008803A48FCF781FB404200B20C49088077
:104FB00000204FF0804188843449243108800D4816
:104FC00000680849B1F9001008440A490860084817
:104FD00000680349B1F9001008440549086057E02A
:104FE0002E0300202C030020340300203003002077
:104FF0003C03002038030020500300204803002019
:105000005403002084030020880300208C03002028
:105010008003002014030020200300202803002028
:105020002403002074030020700300207803002074
:105030007C03002008030020090300200A0300204D
:105040004C0300200000F0C10000F0419C03002050
:10505000980300200000A0C00000A040A60300208C
:10506000A00300209A9999999999E93F9999E9BFE4
:10507000A40300200D03002000080140000C0140A3
:105080000004004000C0794400C079C4000800401A
:10509000F8480068F849B1F90010401AF54908606D
:1050A000F6480068F649B1F90010401AF349086063
:1050B00010BD2DE9F04F87B0F248B0F9000000F0C4
:1050C0004AFF06460022F04B00F0CDFECDE902017A
:1050D000EE48B0F9000000F03EFF06460022EA4B21
:1050E00000F0C1FE8046DDE9022302F001FA044629
:1050F0000022E74B00F045FEE64AE74BCDE904010C
:1051000000F0B1FE824600F0EDFFE4490860E4489B
:10511000006800F017FF0446E0480168204600F0F0
:1051200016FDDE490860DF48B0F9000000F013FF0B
:1051300006464FF06632DC4B00F095FE044600F068
:1051400055FF00B2D74908800846B0F9000000F0CA
:10515000F9FED6490860D148006800F07FFF044698
:10516000D34AD44B00F00DFECDE90201CF480068D0
:1051700000F074FF8246CE4ACF4B00F002FE064696
:105180000F46CE48006800F069FF804632463B4635
:1051900000F050FD0446CA4ACA4B00F0F2FDCDE9CA
:1051A0000001DDE9022300F045FDCDE9040100F036
:1051B00099FFC249086007B0BDE8F08F2DE9F041C2
:1051C000C148806880F00047C049384600F0F4FCD0
:1051D0000646B6480168002000F0B6FC804631461D
:1051E00000F0B8FC0446B848006880F00047B348B7
:1051F0000168002000F0A8FC8046394600F0AAFCB7
:105200000646B34900F0A6FC0546214600F04AFCDC
:10521000B0490860BDE8F0812DE9FE4FAE4909684C
:10522000AE4A1268881800F096FE06460022AC4B83
:1052300000F0A7FD044600F055FFAA4908600020D1
:10524000A6490860A4490860A648006800F006FF67
:1052500006464FF03332A44B00F093FD04460D4652
:10526000A248006800F0FAFE06464FF06632A04BF6
:1052700000F087FD804622462B4600F0DBFC82468C
:1052800000F030FF974908600846006897490860B9
:1052900098480068009093480168009800F054FC1A
:1052A000009095480168009800F054FC02909249E3
:1052B000486800F0D3FE82460022904B00F0D3FDF8
:1052C00006460F46009800F0C9FE804632463B462F
:1052D00000F057FD044600F005FF01908848019951
:1052E000006800F0DFFB8649086086480168844852
:1052F000006800F0D7FB824908600846006800F0AB
:1053000048FE00B2B0F52F7F02DD7F487C4908607F
:105310007B48006800F03DFE00B210F5617F02DAC4
:105320007A48774908607A4800687A490860744882
:105330000168029800F0B6FB75490860BDE8FE8F71
:105340002DE9F041734801687148006800F0FCFBEA
:10535000064671480078401C00F0F4FD07463146CF
:1053600000F0F8FB05466D4900F026FC044669484C
:105370000168204600F096FB69490860BDE8F081AD
:105380002DE9FC5F8146884614461D460C9E214649
:10539000404600F0C3FE17D22946304600F0D4FB49
:1053A00041460190204600F0CFFB0090019900F0AB
:1053B00003FC82464146484600F0C6FB8346514600
:1053C00000F0FAFB074616E02946304600F0BCFB29
:1053D00083462146404600F0B7FB5946009000F056
:1053E000EBFB82464146484600F0B1FB5146019036
:1053F00000F0E2FB07463146384600F099FE01D244
:10540000374605E02946384600F088FE00D22F4690
:105410003846BDE8FC9F38B505460C4600212846B5
:1054200000F086FE0AD23F480023284A1946009021
:105430002846FFF7A5FF3C4908600BE039480023E8
:105440003A4A194600902846FFF79AFF80F000403C
:10545000354908600021204600F06AFE6BD23448CE
:1054600000231A4A194600902046FFF789FF214978
:1054700008606CE0900300202C03002094030020BF
:105480002E0300202C0000200000D0402A00002025
:10549000008066401F85EB51B81E09408C03002038
:1054A000100300202800002066663040880300209A
:1054B0007B14AE47E17A943FE17A743F8403002085
:1054C0005C8FC2F5285CEF3F5803002000002041AC
:1054D0000000A04020030020380300203C030020EF
:1054E0000000E03F480300203333D33F5003002047
:1054F0006666E63F4C030020640300200000244061
:10550000540300207003002000002F44000061C4F9
:105510001C030020180300200A0300200000C841DB
:10552000140300200000C84374030020000020C1C1
:1055300000008C42FFE79D4800239D4A19460090D9
:105540002046FFF71DFF80F000409A49086038BDF3
:1055500010B51E20FEF765FC9748FCF7A6F800B2D0
:1055600096490860002094492431088093480068D7
:1055700010BD10B51E20FEF754FC4FF08040FCF724
:1055800094F800B28E49086000204FF08041888472
:105590008B48006810BD2DE9F04107460C461546C2
:1055A0004FF07E51384600F0B9FD2CD10021204645
:1055B00000F0B4FD27D14FF07E51284600F0AEFD3B
:1055C00021D103207F4908704FF480517E48FAF7BB
:1055D00012FF3220FEF725FC4FF480517A48FAF78B
:1055E0000CFF7AA0FEF74CFA0820764908700021DB
:1055F0007A48FFF710FF4FF4FA60FEF712FC002123
:105600000846FFF708FF7649384600F087FD2AD1A3
:105610000021204600F082FD25D17149284600F086
:105620007DFD20D1022067490870C1026648FAF763
:10563000E2FE3220FEF7F5FB4FF480516248FAF7A4
:10564000DCFE68A0FEF71CFA08205E490870002105
:105650006848FFF7E0FE4FF4FA60FEF7E2FB002136
:105660000846FFF7D8FE6449204600F057FD27D1D1
:1056700004205449087081025348FAF7BCFE3220D6
:10568000FEF7CFFB4FF480514F48FAF7B6FE5BA010
:10569000FEF7F6F908204B4908705D490020FFF736
:1056A000BAFE5C49284600F055FA804600F071FCCD
:1056B00006463046FEF7B5FB00210846FFF7ABFE75
:1056C0005349204600F02AFD28D105203D490870A5
:1056D0004FF480513C48FAF78EFE3220FEF7A1FBD2
:1056E0004FF480513848FAF788FE4BA0FEF7C8F90E
:1056F00008203449087040490020FFF78CFE4549D6
:10570000284600F027FA804600F043FC0646304663
:10571000FEF787FB00210846FFF77DFEBDE8F0811C
:1057200010B50446FCB940480068002809DB3E4833
:1057300000680C2805DC4FF081410020FFF76BFE6C
:1057400032E039480068122808DD374800681E2812
:1057500004DC36490020FFF75EFE25E00021084604
:10576000FFF759FE20E0012C1ED12F4800680028C9
:105770000EDB2D48006814280ADC00212C48FFF7B6
:105780004AFE40F2EE202B49086040422A49086058
:1057900028480068002807DA27480068002803DD49
:1057A00022490020FFF737FE10BD000000008C42A8
:1057B000000020C14C0300200008004040030020EE
:1057C0004403002002030020000C0140CAD5B5BDEF
:1057D000A3ACD5FDD4DAD3D2D7AA00000000404054
:1057E000000080BFCAD5B5BDA3ACD5FDD4DAD7F3D0
:1057F000D7AA0000000040C00000C040CAD5B5BD17
:10580000A3ACD5FDD4DACFF2C7B0D7DF00000000DB
:105810000000C0C00000A041CAD5B5BDA3ACD5FDF5
:10582000D4DAB5B9CDCB0000F8020020000080C06A
:105830000000A04090030020940300202DE9F041D7
:1058400006460D4617460024FCF7A1FB3520FCF761
:1058500039FE00BF05E05F48205C5F490855601CC9
:10586000C4B2802CF7DB002406E015F8010B3119D7
:10587000594A5054601CC4B2BC42F6DB5548FCF790
:10588000CBFB002407E0544A1159524AA018FCF7F8
:1058900093FC201DC4B2802CF5DB3520FCF712FEF2
:1058A000FCF781FBBDE8F08110B50346002006E05F
:1058B000484C1C44245C01F8014B441CE0B290426B
:1058C000F6DB10BD08B5012269463220FFF7ECFF78
:1058D0009DF80000012805D10C2240493320FFF734
:1058E000E3FF04E00C223D490220FFF7DDFF012227
:1058F00069464820FFF7D8FF9DF80000012805D130
:105900000C2237494920FFF7CFFF04E00C2234492D
:105910001220FFF7C9FF08BD08B502226946002022
:10592000FFF7C2FF9DF80000A52806D19DF80100F1
:105930005A2802D1FFF7C6FF14E0A5208DF8000019
:105940005A208DF80100022269460020FFF776FFF9
:105950000C2222490220FFF771FF0C22204912205D
:10596000FFF76CFF08BD38B504460120009054B91C
:10597000012269463220FFF761FF0C2217493320CC
:10598000FFF75CFF09E0012269464820FFF756FF58
:105990000C2213494920FFF751FF38BD38B50446A2
:1059A0000020009054B9012269463220FFF746FFDB
:1059B0000C220A490220FFF777FF09E0012269461D
:1059C0004820FFF73BFF0C2205491220FFF76CFF30
:1059D00038BD000000F000080A0500205803002030
:1059E0006403002040EA01039B0703D009E008C9D3
:1059F000121F08C0042AFAD203E011F8013B00F894
:105A0000013B521EF9D27047D2B201E000F8012BDF
:105A1000491EFBD270470022F6E710B513460A462E
:105A200004461946FFF7F0FF204610BD30B5054685
:105A30002A460B4612F8010B13F8014B08B1A0429D
:105A4000F8D01CB1002802D06D1CF1E7284630BD0B
:105A5000421C10F8011B0029FBD1801A704700007E
:105A600070B50F4D00B92868002412E00A4602E024
:105A70009E4203D0521C1378002BF9D1DAB2224394
:105A800005D02BB124B1002100F8011B04E004462D
:105A9000401C0678002EE9D12860204670BD000029
:105AA000B0030020F0B480EA0102D40F4200B2EB50
:105AB000410F02D20246084611464A0042D0C30DA9
:105AC000DDB2C1F3C752AD1A202D35DAC1F316018C
:105AD00041F4000204B15242C5F1200602FA06F177
